:0200000260009C
:10400000000001205D4306004543060047430600CB
:10401000494306004B4306004D43060000000000E4
:104020000000000000000000000000004F430600F8
:1040300051430600000000005343060055430600AC
:104040005743060057430600D56506005743060050
:1040500057430600574306005743060057430600E0
:1040600057430600574306005743060057430600D0
:1040700057430600574306005743060057430600C0
:104080008979060057430600574306005743060048
:1040900057430600574306005743060057430600A0
:1040A0005743060057430600574306005743060090
:1040B00057430600574306000000000000000000C0
:1040C0005743060057430600574306005743060070
:1040D00035730600574306005743060000000000F2
:1040E00000000000000000000000000000000000D0
:1040F00000000000000000000000000000000000C0
:1041000000000000000000000000000000000000AF
:10411000000000000000000000000000000000009F
:10412000000000000000000000000000000000008F
:10413000000000000000000000000000000000007F
:10414000000000000000000000000000000000006F
:10415000000000000000000000000000000000005F
:10416000000000000000000000000000000000004F
:10417000000000000000000000000000000000003F
:10418000000000000000000000000000000000002F
:10419000000000000000000000000000000000001F
:1041A000000000000000000000000000000000000F
:1041B00000000000000000000000000000000000FF
:1041C00000000000000000000000000000000000EF
:1041D00000000000000000000000000000000000DF
:1041E00000000000000000000000000000000000CF
:1041F00000000000000000000000000000000000BF
:10420000314932480A1A02D0072291438D4630497B
:1042100030480A1A06D00722914381F30988022206
:1042200082F314882C482D492D4A00F03CF82D4883
:104230002D492E4A00F037F82D482E492E4A00F01D
:1042400032F82E482E492F4A00F02DF82E482F49DB
:104250002F4A00F028F82F482F49304A00F023F861
:104260002F483049304A00F01EF8304830490022CB
:1042700000F024F82F483049002200F01FF82F4AA0
:1042800090471F481F49884205D00268043003B494
:10429000904703BCF7E700208646EC46002000214B
:1042A000274A9047FEE7884207D0521A05D0037884
:1042B00001300B700131013AF9D17047884202D0C8
:1042C00002700130FAE770470000012000F800207A
:1042D000000001200000012068C506001C0000202D
:1042E00078000020BC430600BC430600C09D0600C9
:1042F00068C506001C0000201C0000207C9E0600F3
:104300007C9E06007C9E06007C9E06007C9E06002D
:104310007C9E06007C9E06007C9E060068C506000A
:10432000C4C5060078000020780000207800002036
:10433000042F0020042F0020042F002085430600B6
:104340005D6D0600FEE7FEE7FEE7FEE7FEE7FEE73F
:10435000FEE7FEE7FEE7FEE7704700BF1048804734
:1043600010484FF00701884385460F4880470F48A3
:10437000016841F470010160BFF34F8FBFF36F8F8D
:10438000FFF73EBF0A480B490B4A884207D0521A32
:1043900005D0037801300B700131013AF9D1704733
:1043A0005943060000000120C17A060088ED00E0B4
:0C43B000689E0600080000201C00002091
:1043BC007047000007B5044B0093044A402300F0FB
:1043CC0032F803B05DF804FBDD43060079000020F1
:1043DC002DE9F84389461446B2B10F4B0F4E032515
:1043EC00002743F00108224609EB0701002005F0E5
:1043FC0065FB0744241A48B933782BB14FF47A4043
:10440C00C047013D02D13570BDE8F88301233370FC
:10441C00002CE8D1F8E700BF809E06007800002051
:10442C00704705F07FBBF0B595B01C4616460846A4
:10443C000D4601F08EFF1A9B0D93CDE90864002404
:10444C002346082205A928460A948DF82C400C9482
:10445C0001F0A6FF079B0293069B03939DF8143073
:10446C008DF8114003F00302012A1DD1BDF8144050
:10447C00059EC3F3C203C4F383148DF81030A2005D
:10448C0008230EA9284601F08BFFC6F3952608AB2E
:10449C000093224602AB0EA9304600F0B7FB28462B
:1044AC0001F05BFF15B0F0BD022AF8D1BDF8164043
:1044BC00C3F3C203A4098DF810300827082C264634
:1044CC0028BF08263B4632460EA9284601F068FF55
:1044DC00A41B08AB02AA31460EA8374400F0FAFB25
:1044EC00002CEBD1DBE7000008B5FFF79AFF0421A5
:1044FC00064800F0F5FA002803DA0549412001F0DE
:10450C005FFA044B01225A7108BD00BF589E060089
:10451C00949E06001C000020037813F0040216D0B1
:10452C0003F00303012B03D0022B09D001207047A9
:10453C000A6800880232C0F3831002440A60F5E76F
:10454C000B684288023303EB92130B60EEE71046C4
:10455C00704700002DE9F04F044687B0851C002001
:10456C000F46904601F0F0F9484806683E60D0E9E5
:10457C000132134401339B1B454E8246A6F10409BC
:10458C00A6F10807AB421AD30022B8F1000F76D07F
:10459C00052363F3070264F38912DAF80010DAF8E2
:1045AC0008300B4003330D444AF823200020CAF88E
:1045BC00005001F0D9F9012007B0BDE8F08F0121BE
:1045CC00304601F040FA484601F056FA384601F000
:1045DC0053FADAF80400DAF808B0029000EA0B009B
:1045EC0003300AEB800002A9FFF796FF03460298FE
:1045FC00002BF3D10BEA00020AEB820200F1020C51
:10460C00D2680392013000EA0B0B0AEB8B0B02F021
:10461C000302012ACDF808C0DBF80C1026D0022AC0
:10462C0008D01C4901934FF4BF7001F0C9F9019BEC
:10463C009B4608E0BDF80E20920903320CEB920267
:10464C004FEA114B0292384601F019FA10B1029B55
:10465C00CAF804305946304601F0F5F9DAE901237D
:10466C001344DAF8002001339B1A8BE7BDF80C30A9
:10467C00C3F3831363444FEA114B0293E3E706231E
:10468C0063F3070264F39F5287E700BF8C0100209D
:10469C00A81100200F9F06000D4B0E4840F2FF3270
:1046AC0041F2180110B59A6000225A5041F21401DF
:1046BC00C3E900225A5003F581531A7001F002FE2F
:1046CC00044610B9044801F07FFE204610BD00BF1F
:1046DC008C010020309E0600749F060030B50A4CF9
:1046EC0071B10A4A0A49121BD20800239A4201D11D
:1046FC00002030BD31F82350854202D00133F5E75C
:10470C00034654F83300F4E7C89D0600309E0600BB
:10471C001C000020094B013903EBC000032909D808
:10472C00DFE801F00A0204060420704700797047A4
:10473C00407970470020704702207047C89D0600E2
:10474C00034BD3E90030C31A58425841704700BF9D
:10475C008C0100202DE9F04385B0FFF7F1FF0646F0
:10476C00002840F0FF80804D41F21803E850BFF361
:10477C004F8F6868AC680090204003307B4F05EB8E
:10478C0080006946FFF7C8FE009B10B13A68002A0A
:10479C0061D004EA0302991C013305EB8202234029
:1047AC0005EB8303D268DB68029302F00303022B50
:1047BC000192009167D1BDF806306D484FEA93180D
:1047CC00B8F1500FC14628BF4FF0500969F38F1351
:1047DC0009F10801ADF8063001F08CFD0746002800
:1047EC0000F0AA8001F0B5FD01A90023082238468B
:1047FC0001F0C2FD009924EA01060136B600B1456C
:10480C003AD95FFA89F9A6B3F6B2A9EB06092140A9
:10481C0003315FFA89F4B146564E05EB810108234A
:10482C004A46384601F0A8FD36B109F10803224684
:10483C003146384601F0A0FD009B08F1030803EB5C
:10484C009803009341F21803EB58002B4FD141F21F
:10485C001003EC585EE02A689A4204D86A6030462D
:10486C0005B0BDE8F08304EA0300033005EB8000DB
:10487C0087E740493446D2E72140033108234A46B2
:10488C0005EB8101D5E7012B56D1BDF80430384832
:10489C00C3F38311062928BF062161F38913023162
:1048AC008900ADF8043001F025FD0746002843D0FF
:1048BC0001F04FFD0023082201A9384601F05CFDF0
:1048CC000026BDF80420C2F38312B300964203F114
:1048DC000803B7D200994A1C21400331009205EB22
:1048EC0081010422384601F047FD0136E9E73846DC
:1048FC0001F033FDFFF724FF80F00100C6B2AEE7F4
:10490C00E3685B7923B1236839461B6820469847D6
:10491C00E3681C68002CF3D1384601F01EFD2046DC
:10492C0001F012F841F21803EB580BB9009B6B60C5
:10493C00002001F019F8DDE741F21003EC5854B9EE
:10494C000D4B0E480E49C01AC008000440F002007E
:10495C0000F084F8CEE7236820469B689847E3680C
:10496C001C68ECE700267AE78C010020A4110020DB
:10497C00309E060098010020C89D0600D89D0600B8
:10498C00809F06002DE9F74F2E4D80460F4691462D
:10499C0001A9012218461E46D5F808A0FFF7DAFD3A
:1049AC0000283CD0019C0023A01CB34203EB000167
:1049BC003FD10021244801F010F880F3100B234B59
:1049CC00234A4FEA18499B1AB9EBD30F04D3214958
:1049DC0040F2A31000F0F4FF631C03EA0A0305EB9A
:1049EC00830349EA0B42DA6004EA0A03033315F83D
:1049FC00232068F3C50205F8232035F8232066F33D
:104A0C00891225F8232055F8232067F39F2245F8B7
:104A1C00232002F0F80242F0010205F823200E4B8D
:104A2C001B781BB1FFF796FE0028FBD103B0BDE845
:104A3C00F08F0AEA010105EB810159F82320CA60C5
:104A4C000133B2E78C010020A8110020309E060033
:104A5C00C89D06000F9F0600AC11002000231A46CB
:104A6C00FFF790BF07B50123019201AAFFF78AFF58
:104A7C0003B05DF804FB07B5CDE9002302236A46B9
:104A8C00FFF780FF03B05DF804FB1FB5CDE90123F0
:104A9C00069B039301AA0323FFF774FF05B05DF88F
:104AAC0004FB1FB5CDE90023069B0293079B0393E0
:104ABC006A460423FFF766FF05B05DF804FB7FB57B
:104ACC00CDE90123089B0393099B04930A9B05934F
:104ADC0001AA0523FFF756FF07B05DF804FB0000A1
:104AEC0030B541F210030F49CA580023144644B99B
:104AFC00C46823715AB941F2100548512260184616
:104B0C0030BDE46825799D4206D02468EFE7D26871
:104B1C00116821601060F2E701330A2BE6D14FF0E7
:104B2C00FF33ECE78C01002038B541F21002094B41
:104B3C009C5803F58152012313701D4604B938BDEE
:104B4C00E3685D71236820465B689847E3681C68DE
:104B5C00F4E700BF8C010020037A052B10B50C463E
:104B6C000FD0437A23B1084A0849204601F02AF8AD
:104B7C000749204601F026F82046BDE8104001F018
:104B8C000FB8002AF8D0F3E7CB9F0600D09F0600A1
:104B9C00F09F0600C38873B504460D4633B1144A22
:104BAC0000921449144A284601F00CF8217A052980
:104BBC001CD0637A4BB1A088FFF7ACFD0F4B1049AA
:104BCC0053F82020284600F0FDFF227A0D4BA088D8
:104BDC0053F822600021FFF781FD0B490346324652
:104BEC00284602B0BDE8704000F0ECBF02B070BDCA
:104BFC00CB9F0600DB9F0600D39F0600989F060004
:104C0C00D09F060000A00600F39F06002DE9F0439C
:104C1C0085B01F460C9D002306460C46904695F821
:104C2C000C902B7329463846FFF7B4FFB8F1060FEA
:104C3C0009D8DFE808F00412181F28334000314669
:104C4C00284600F0BFFF002229463846FFF784FFB4
:104C5C0085F80C9005B0BDE8F083226831462846F3
:104C6C0000F0B0FFEFE7D4E900233146284600F00E
:104C7C00A9FFE8E7A36800933146D4E9002328464E
:104C8C0000F0A0FFDFE7E3680193A36800933146CF
:104C9C00D4E90023284600F095FFD4E7236902935A
:104CAC00E3680193A36800933146D4E900232846B6
:104CBC0000F088FFC7E76369039323690293E368F5
:104CCC000193A36800933146D4E90023284600F0F1
:104CDC0079FFB8E708292DE9F84F80460E461746AC
:104CEC001C4636D8002593F80C901D7319461046B7
:104CFC00FFF750FFDFF87CA0DFF87CB0AE422AD97A
:104D0C0018F805205946204600F05CFF0135082DA7
:104D1C00F4D11649DFF864B0204600F053FF0025AB
:104D2C00AE421DD918F805A0504604F055FF0028D6
:104D3C0014BF52462E225946204600F043FF01353F
:104D4C00082DEDD1012221463846FFF705FF84F8E6
:104D5C000C90BDE8F88F5146204600F033FFD5E7A4
:104D6C000349204600F02EFFE9E700BFC69F06006E
:104D7C00C49F0600C29F0600BC9F0600C89F060089
:104D8C0002494FF4E87000F01BBE00BFB6A006004D
:104D9C00022810B5044603D90849412000F010FE42
:104DAC00074B1C5D1F2C01D9FFF7EAFF01234FF0C5
:104DBC00A042A340C2F80C3510BD00BF65A0060090
:104DCC00B3A00600022810B5044603D908494720B1
:104DDC0000F0F6FD074B1C5D1F2C01D9FFF7D0FF2F
:104DEC0001234FF0A042A340C2F8083510BD00BF0C
:104DFC0065A00600B3A0060008B50020FFF7E2FF8F
:104E0C000120FFF7DFFF0220BDE80840FFF7DABF03
:104E1C0038B5C30712D54FF0A0440325FFF7B0FFF8
:104E2C00C4F8B057FFF7ACFFC4F8AC57FFF7A8FFB6
:104E3C00C4F8A857BDE83840FFF7DEBF38BD0023E3
:104E4C00C0E90232C0E900118B781A44026191F971
:104E5C0003301A4442610878003018BF01207047B3
:104E6C0038B5426811780346002938D002F10C019C
:104E7C004160147B2CB9C2680168FFF7E0FF204643
:104E8C0038BD5078117900F03005302D14D1547B99
:104E9C0004F03004302C1CD190781969091A19616E
:104EAC000021907B084419690144196192F90F2083
:104EBC00114459610120E3E700F0F004202C08D1E3
:104ECC00507910FB01F1002DEBD1986801309860FE
:104EDC00E7E700F0C000802808BF0421F3E708468C
:104EEC00CEE770B5456804460E4663681A78B24240
:104EFC0004D15B7803F00F03082B07D12046FFF792
:104F0C00AFFF6368AB42F0D1002070BD0120FCE71D
:104F1C0043681A44426011B101399A4201D101200F
:104F2C00704713F8010B01F8010FF6E783682DE9C0
:104F3C00F3410446884623B90027384602B0BDE841
:104F4C00F081036801220DF10701984707460028FC
:104F5C00F2D0A3689DF80750013B2A06A3601AD52E
:104F6C0005F07F050726A368002BE5D023680122F6
:104F7C000DF10701204698470028DDD0A3689DF865
:104F8C000720013BA36002F07F03B3401D431306CF
:104F9C0006F1070602D4C8F80050CEE7232EE2D162
:104FAC00CAE770B545686A7802F00F06082E86B01D
:104FBC0003461FD103691C6800260CB906B070BDEE
:104FCC00236862689D68267329466846FFF737FF99
:104FDC006368049304F10C0305936B7803F0C0032E
:104FEC00802B08BF231D684608BF0493FFF7D9FF29
:104FFC00A468E2E712F0C0011CD102F030001028C6
:10500C000AD15A691170072EAC68186909D101468A
:10501C00204600F017F8D1E79006F4D55B691970BB
:10502C00CCE72A79214614B104F016FEC6E704F049
:10503C003CFEC3E78029C1D10069002192060160C2
:10504C00BCD5EBE77FB50A4601466846FFF7F7FE8D
:10505C0030B16846FFF7A5FF6846FFF701FFF7E799
:10506C0007B05DF804FB000030B5044685B015466A
:10507C00A9B90268114B9A4211D0102D06D82A46B4
:10508C0069462046FFF7F0FF05B030BD1022694697
:10509C002046FFF7E9FF0028F6D0103DEDE7A368A6
:1050AC00AB4201D20020EFE723682A4620469847FE
:1050BC000028F7D0A3685D1BA560E5E71D4F06002F
:1050CC00F7B50E4601A907461546FFF72FFFA8B105
:1050DC00019A0123D3184FF0000404D2717801F027
:1050EC00C001802901D1204608E031799942FAD3D8
:1050FC0029463846FFF7B8FF019BEC5403B0F0BDCE
:10510C0073B50D4601A906461446FFF70FFF90B183
:10511C00019AFF2A11D86B7803F0C003802B02F19F
:10512C0001010AD02B798B4207D32146304601F876
:10513C00012BFFF799FF02B070BD0020FBE70000C8
:10514C0010B5034C82600022C0E90041C26010BD62
:10515C001D4F06002DE9F3470025064688462F46CD
:10516C002C46B36843B3336801220DF10701304676
:10517C00984708B3B3689DF807C0013B0CF07F0259
:10518C005FFA82F9C4F12001B360A4F1200309FA9B
:10519C0003F329FA01F109FA04F20B431CF0800F16
:1051AC0045EA020547EA030704F1070402D1C8E9FE
:1051BC00005702E0462CD4D1002002B0BDE8F087A5
:1051CC0073B50C4669461646FFF7C4FF68B12379E0
:1051DC00082B0CD1DDE90045C6E90045DDE90023CB
:1051EC00AB4206BFA2420120002002B070BD042BCE
:1051FC0004D1009B33601C460025EFE7022B4FF0D7
:10520C00000004D1009B33809CB20546E6E7012BDD
:10521C00EBD1009B337003F0FF04F6E737B50D4676
:10522C0069461446FFF796FF30B12A79082ADDE962
:10523C00003103D1C4E9003103B030BD042A184653
:10524C004FEAE37108D123601A460B468B4206BF26
:10525C00824201200020EFE7022A04D11BB22380F6
:10526C001AB2D317F2E7012A03D15BB223705AB2F8
:10527C00F7E70020E0E7F7B50C4600211970217024
:10528C00116001A9074615461E46FFF74FFE30B9BF
:10529C00BB6813B901233370002003B0F0BD019932
:1052AC000029F7D0CB0801F007012B602170F4E73F
:1052BC0013B5044605291FD8DFE801F0030F151EAE
:1052CC001E1C012201A92046FFF7CEFE18B19DF944
:1052DC000430002BF5DB02B010BD08220021204663
:1052EC00FFF7C2FEF7E701A9FFF720FE0028F2D076
:1052FC00019AF3E70422F1E70020ECE773B50D46C1
:10530C0001A90446FFF712FE064618B900263046DE
:10531C0002B070BD94E80F0085E80F0001998A4235
:10532C00F4D3A960A3685B1AA360F0E72DE9F043FE
:10533C0055686B7813F0C00489B006468C46174646
:10534C0003D0402C67D000240AE003F00F025D4923
:10535C0003F03003102B51F822801BD004D8E3B19A
:10536C00204609B0BDE8F083202B1BD0302BF7D1A1
:10537C007B6929781970072A0AD17B6838691A79F0
:10538C00214604F092FC7B6839699868FFF75AFE55
:10539C003A693DE07B6901221A703A692946C04797
:1053AC000446DDE7BCF1020FD7F8149024D1042A8F
:1053BC0022D804A9FFF7A2FF04460028C3D0069BFD
:1053CC002BB1796899F800304A799A4205D8059B37
:1053DC007360069B002BC3D0B5E708793A6900FBD4
:1053EC00032204A8C04728B199F80030013389F88A
:1053FC000030E4E70446EAE799F800306A799A420B
:10540C00A1D93A692979581C89F8000001FB0322BB
:10541C0079683046C3E7D2F81080454655F8043B0E
:10542C0013B9FFF745FFBBE7022914D104A9FFF715
:10543C0065FF002887D0D8F8003079682A4604A880
:10544C009847044600283FF47EAF069B002BF2D110
:10545C00059B736084E701292BD04CB24CB1052914
:10546C007FF471AF04220DEB0201FFF7FDFD042464
:10547C0024E00DF1040901340B2C3FF464AF01223C
:10548C0049463046FFF7F0FD00283FF45CAF19F9B0
:10549C00013B002BEFDB0C4B049301ABCDE9053446
:1054AC00002307932A46D8F80030796804A8984757
:1054BC0076E7082201A9FFF7D7FD08240028EAD1D6
:1054CC0041E700BF04A106001D4F06002DE9F04F77
:1054DC0091B00446002604A8CDE90266FFF7AFFCA4
:1054EC00A3683BBBDDE9053404A85D78FFF7B8FC85
:1054FC000028F7D115F0300F03D1059B1B7803B1B1
:10550C000134002C00F0A9806309002202A9934207
:10551C0040F09C8010AA02EB830304F01F04C4F13A
:10552C0020044FF0FF3053F8383CE040C31A584287
:10553C0058410DE00DF1030301AA0DF102012046C3
:10554C00FFF799FE38B99DF80330002BCAD1002023
:10555C0011B0BDE8F08F019904A8FFF7C2FC002838
:10556C0050D1019BB3427DD3059D059A537803F02E
:10557C000F03082B7FD004A8FFF772FC059B9D42FC
:10558C00F3D14FF0FF36019FB7426BD3089B9DF8C8
:10559C000290D4F808801D684FF0010AA368002D12
:1055AC005DD098459CD12B68D3F800B0BBF1000FAF
:1055BC0008D04B463A4629462046D8470028C6D044
:1055CC00AD68EBE7D3F808B09BF800309F42F7D1F9
:1055DC006A6859460AA8FFF732FC6B680E9305F10E
:1055EC000C030F939BF8013003F0C003802B04BF16
:1055FC002B1D0E930AAA85F80CA049462046FFF7EE
:10560C0095FEDBE7059B5B7813F0300F0FD1069A04
:10561C003F2A0CD8510910AB03EB810102F01F0299
:10562C000123934051F8382C134341F8383CE5687A
:10563C002DB104AB9DF8022001992046A84704AA7D
:10564C009DF802102046FFF771FE10E051F8225031
:10565C0001357FF47DAF013259E7012078E7984599
:10566C007FF43EAF9DF802102046FFF721FE002884
:10567C007FF436AF6BE7167885E770B50C460646B7
:10568C00154611462046FFF7DDFC2A4621463046DA
:10569C00BDE87040FFF71ABFF0B585B00C468D68B9
:1056AC00694607461646FFF729FE68B1A06858B14F
:1056BC00637803F03003202B32462946684605D127
:1056CC00FFF7DBFF019B7B6005B0F0BDFFF7FEFE33
:1056DC00F8E7D3B50C466946FFF73CFD80B1DDE930
:1056EC00001300274A0801F0010642EAC37256EA89
:1056FC0007014FEA53031CBFD243DB43C4E9002329
:10570C0002B0D0BD37B50D4669461446FFF7E1FF30
:10571C0068B12B79082B0CD1DDE90001C4E900013B
:10572C00DDE900238B4206BF82420120002003B03A
:10573C0030BD042B03D100982060C117F0E7022B79
:10574C0004D1BDF90000208000B2F6E7012B04D192
:10575C009DF90000207040B2EFE70020E7E713B599
:10576C0004220C460DEB0201FFF77EFC08B1019BF5
:10577C00236002B010BD1146FFF7F1BF13B508222C
:10578C000C466946FFF770FC18B1DDE90023C4E94B
:10579C00002302B010BD1146FFF7F0BF4B1C30B513
:1057AC00DB00044612F003009BB20DD1074D2A60BA
:1057BC001A44074B1A60074B1870074B1870074BAD
:1057CC001C80074B198030BD0720FCE750120020CD
:1057DC004C120020481200205812002054120020B5
:1057EC00561200202DE9F047284D2B888B42064697
:1057FC000C46174645D3002000F0A6F8244B254A4A
:10580C002548197813780088DBB2834238BF0133FE
:10581C00C9B234BFDBB2002399422CD092F800807D
:10582C001378DBB2984286BF0133DBB200231370CE
:10583C00002000F099F84FF6FF73984523D0DFF85D
:10584C0060A0DAF800304FEAC80903EB090243F80C
:10585C0038709EB194B1114B28881B68224608FB06
:10586C000030314604F0F8F9DAF800304B440020EF
:10587C009C80BDE8F0874FF6FF78D9E70020908038
:10588C00F7E70920F5E70420F3E700BF54120020E6
:10589C005812002048120020561200204C120020F2
:1058AC0050120020F8B5124C124D264622782B7857
:1058BC009A4200D1F8BD23780F48104A0788126825
:1058CC000F48DBB219B202EBC10C006852F8312060
:1058DC00BCF8041003FB070090470A4A237812888F
:1058EC00DBB29A4286BF0133DBB200233370DDE7B3
:1058FC005812002048120020541200205012002090
:10590C004C1200205612002072B6024A1368013362
:10591C00136070475C120020034A1368013B13604C
:10592C0003B962B6704700BF5C120020EFF3058329
:10593C00C3F308032BB9EFF31480C04300F001004C
:10594C00704701207047000008B5FFF7EFFF0128F2
:10595C0003D00449432000F033F8BDE80840FFF7BA
:10596C00D3BF00BF28A1060008B5FFF7DFFF012851
:10597C0003D00449512000F023F8BDE80840FFF79C
:10598C00CBBF00BF28A1060030B53AB11368DB438A
:10599C000A4D0144814204D1D84330BD4FF0FF334E
:1059AC00F6E710F8012B5340082213F0010418BF3E
:1059BC002C46013A84EA5303F7D1EBE72083B8ED88
:1059CC0007B5ADF8000001916A46002144F20200CF
:1059DC0001F094F903B05DF804FB50E8002F0B467E
:1059EC0040E8003C9CF0000FF7D11046704750E89F
:1059FC00002F42EA010340E8003C9CF0000FF6D176
:105A0C001046704750E8003F43EA010240E8002C82
:105A1C009CF0000FF6D11046704750E8002F02EAB8
:105A2C00010340E8003C9CF0000FF6D11046704793
:105A3C0050E8003F03EA010240E8002C9CF0000F04
:105A4C00F6D11046704750E8003F03EB010240E8E6
:105A5C00002C9CF0000FF6D11046704750E8003F28
:105A6C00A3EB010240E8002C9CF0000FF6D110468D
:105A7C0070470121FFF7BBBF0121FFF7C3BF002116
:105A8C00FFF7CBBF0021FFF7D3BF000010B50446D2
:105A9C00002834D003681BB91A49FF20FFF790FF88
:105AAC00636823B917494FF48070FFF789FFA36827
:105ABC0023B9144940F20110FFF782FFE36823B9C0
:105ACC0010494FF48170FFF77BFF238A23B90D49EE
:105ADC0040F20310FFF774FFD4E9012321689B1AED
:105AEC00DBB20A60013BDBB2FF2B226802D1002043
:105AFC00107110BD1168481C10600B70F2E70E207D
:105B0C00F7E700BF92A1060038B5044620B9114949
:105B1C004FF49270FFF754FF0020FFF715FF226837
:105B2C0063681168994213D9481E106011F8015C22
:105B3C00E368218A01FB0535A36811791B1ADBB2D6
:105B4C00994200D213710020FFF70EFF284638BD92
:105B5C000025F8E792A1060038B50C46054620B999
:105B6C000E4940F24710FFF72BFF24B90B494FF4B5
:105B7C00A470FFF725FF0020FFF7E6FE2A681368E4
:105B8C00591C1160EA68A41A2A8AB4FBF2F41C703E
:105B9C000020BDE83840FFF7E7BE00BF92A1060029
:105BAC0010B5044618B906493120FFF709FFA26861
:105BBC002AB163692168206998470023A36010BD4E
:105BCC00EEA106000EB433B5059D044618B9114973
:105BDC004220FFF7F5FE63691BB90E494320FFF71E
:105BEC00EFFE23681BB90B494420FFF7E9FE6368FD
:105BFC001BB908494520FFF7E3FE35B106AB01AAF6
:105C0C0029462046019300F06FF802B0BDE8304001
:105C1C0003B07047EEA10600826830B40468551CCE
:105C2C008560A154D0E901329A4202D330BCFFF70F
:105C3C00B7BF30BC704700002DE9F84F9946DDE93D
:105C4C000A431746824688460A460126BA420FD2B4
:105C5C004E4538BF4E4613F0010B01D164B90024F8
:105C6C000125B9F1010F1AD909F1FF397D43F8E784
:105C7C00B2FBF7F20136E9E79B070ED5B9F1000F3D
:105C8C000CBF30252025A642EAD2013C29465046BD
:105C9C00FFF7C2FF002CF6D1E1E72025F3E7B8FBB4
:105CAC00F5F39F42E2D9DFF83C90B8FBF5F3504690
:105CBC0019F8031005FB1388FFF7AEFFB5FBF7F3DC
:105CCC00BD4207D2BBF1000F02D00CB1A64203D3E8
:105CDC00BDE8F88F1D46E8E720215046013CFFF750
:105CEC009BFFF2E740A206002DE9F74F88461746C6
:105CFC00054620B9A8494FF49F70FFF761FE6B6908
:105D0C0023B9A5494FF4A070FFF75AFE2B6823B9AD
:105D1C00A14940F24110FFF753FE6B6823B99E492D
:105D2C004FF4A170FFF74CFEB8F1000F00F030817A
:105D3C0018F8011B49B92B7B002B00F02981284650
:105D4C0003B0BDE8F04FFFF72BBF252940F0C08012
:105D5C00002698F800302D2B424608F1010823D07C
:105D6C00302B24D02B2B25D000242A2B02F101011F
:105D7C0023D13B681A1D1B683A601C440A461378F1
:105D8C002E2B26D101324FF00009104610F8011BC2
:105D9C00A1F1300CBCF1090F1DD80A2303FB091328
:105DAC00A3F130090246F0E746F00106D1E746F0D0
:105DBC000206CEE746F00406CBE711F8013CA3F14E
:105DCC0030000928DBD80A2202FB0434303C0A4696
:105DDC00CBE74FF0000912F8011B01F0FB0068281B
:105DEC009046F8D069290ED04AD8582964D006D8E4
:105DFC0025296DD098F80030002B99D19BE76329A9
:105E0C0062D06429F6D13A68D2F800A0111D8AEA52
:105E1C00EA723960A2EBEA724FF0010B092A5BDCE3
:105E2C00CB4538BFCB462CB1BAF1000F01DB720762
:105E3C0000D5013CB30702D5B9F1000F04D0F0072F
:105E4C0002D4002C4ED10024BAF1000F52DACAF160
:105E5C00000A2D212846FFF7DFFE06F00302022A76
:105E6C0005D1B9F1000F02D1002C47D10024CDE9A6
:105E7C0000464B460A2251462846FFF7DDFEB9E79D
:105E8C0073294CD014D87029B4D13B681A1D3A60D0
:105E9C00302128461C68FFF7BFFE78212846FFF703
:105EAC00BBFE00220823CDE9003221461022E3E795
:105EBC0075292BD078299DD139680A1D3A60CDE916
:105ECC0000464B46102228E03B681A1D19783A60B0
:105EDC002846FFF7A1FE8DE70A230BF1010BB2FB5D
:105EEC00F3F29BE7A345AFD220212846013CFFF7F4
:105EFC0093FEA6E77107B0D52B21ABE7A345B6D22D
:105F0C0030212846013CFFF787FEADE73968CDE923
:105F1C0000460A1D3A604B460A220968ACE73B680A
:105F2C001A1D3A6016F00106D3F800A020D1BAF180
:105F3C00000F03D0504603F00DFF0646B44200D9C3
:105F4C00C4B90AF1FF3A1EE028460136FFF764FE99
:105F5C001AF806100029F7D1A642BFF44BAF002C5B
:105F6C003FF448AF20212846013CFFF755FEF3E7EC
:105F7C000026EDE720212846013CFFF74DFEDDE72A
:105F8C002846FFF749FE1AF8011F0029F8D131E71E
:105F9C0003B0BDE8F08F00BF50A2060070B50D46EF
:105FAC001646044618B908495520FFF709FD1DB9D6
:105FBC0005495620FFF704FD25602B683146204625
:105FCC00BDE87040184700BFA9A206002DE9F041BA
:105FDC00DDF818800E4617461D46044618B92249AE
:105FEC008820FFF7EDFC1FB91F498920FFF7E8FC5B
:105FFC0023681BB91C498A20FFF7E2FC45BB1A49F0
:10600C008B20FFF7DDFCB20703D017499120FFF777
:10601C00D7FCBB0703D014499220FFF7D1FCE368EF
:10602C009E4204D3731E22692B44934203D90E491A
:10603C009320FFF7C5FC2368CDF81880D3F80CE04B
:10604C003A462B4631462046F446BDE8F0416047BF
:10605C0063685A68B5FBF2F302FB1353002BD2D0E2
:10606C0001498E20CDE700BFA9A206002DE9F04121
:10607C000D4616461F46044618B919499E20FFF7CF
:10608C009FFC23681BB916499F20FFF799FC1EB98A
:10609C001349A020FFF794FC63681B68013B2B425B
:1060AC0003D00F49A320FFF78BFCE3689D4207D375
:1060BC0063681B686A1E03FB06232269934203D99B
:1060CC000749A820FFF77CFC2368D3F810E0324680
:1060DC003B4629462046F446BDE8F041604700BFE8
:1060EC00A9A2060070B508B10368ABB90C4D0D4CF4
:1060FC000026641B1423B4FBF3F4B44201D100203A
:10610C0009E02B6813B901361435F6E7DB6928462C
:10611C0098470028F7D070BDDB69BDE87040184780
:10612C00080000201C000020014B43600020704739
:10613C0018A306000846704700207047024B1868E9
:10614C00003018BF012070476012002008B50248CB
:10615C00FFF798FC002008BD6012002008B510461F
:10616C001A4603F079FD002008BD00002DE9F0432C
:10617C00814687B014480F4616469846FFF779FCBF
:10618C000446F0B90546AE4215D10F48FFF77AFC2C
:10619C00D9F808305BB102228DF800200022CDE93D
:1061AC000127CDE90326CDF8148068469847204690
:1061BC0007B0BDE8F08307EB053000F0CDF90135F1
:1061CC00E1E71124F3E700BF601200202DE9F04154
:1061DC00804686B011480F4616461D46FFF749FC0F
:1061EC000446C8B9AA083146384600F0CDF90B4828
:1061FC00FFF748FCD8F8083053B101228DF8002085
:10620C000C9A0592CDE90147CDE90365684698479C
:10621C00204606B0BDE8F0811124F9E76012002099
:10622C002DE9F74F99469DF8303001938846174673
:10623C00054618B92249B620FFF7C2FBEA8895F843
:10624C0005B00BFB02FBABF1040BCB4503D81C498F
:10625C00C420FFF7B5FB3E68B5F806A006EB0902B3
:10626C005A4509F1040188BFABEB0906B1FBFAF4FE
:10627C003E600AFB141144B9AAEB0107B74228BFD0
:10628C0037462EB903B0BDE8F08F2D68013CF2E71C
:10629C00019A043108EB0403681872B101463A46BE
:1062AC001846F61B03F0D8FCB2453C442D68574603
:1062BC004FF0000128BF3746E3E73A461946F0E7AE
:1062CC0044A30600FFF7E2BBF8B546790146721EFF
:1062DC000546002393422D6803D30024A64202D81E
:1062EC00F8BD0133F6E70F682846FFF735FC01349B
:1062FC003946F3E72DE9F843068ACD1C0746FFF72C
:10630C0003FC043E35440446B5FBF6F5F0B14FF4FE
:10631C008073EDB28380C680013D076081464FF0EB
:10632C000008A84512D23846FFF7EEFB064648B1E6
:10633C0063790133637108F10108C9F80000076043
:10634C008146EEE72046FFF7BFFF34462046BDE806
:10635C00F88301210430FFF776BB10B50121044608
:10636C000430FFF77BFB10F0FF0F04D12046BDE893
:10637C001040FFF7A9BF10BD1FB5144603920022B1
:10638C00009203AAFFF74CFF039BA34203D00349DF
:10639C00F620FFF715FB04B010BD00BF44A30600A8
:1063AC001FB5144603920122009203AAFFF738FF8F
:1063BC00039BA34204D003494FF48070FFF700FB0A
:1063CC0004B010BD44A30600836800225A609A6092
:1063DC00C3E90422DA601A607047F0B578B371B380
:1063EC006BB300241C600A44DB274FF0DC0C4FF02D
:1063FC00DD0E1C688A4204F1010500EB040604D191
:10640C001D60C02333700020F0BD0E78C02E05D067
:10641C00DB2E0CD01D600D78055506E01D60075570
:10642C001C68651C1D6000F804C00131E1E71D60AB
:10643C0006551C68651C1D6000F804E0F5E70E208D
:10644C00E2E710B590B3D0E902239A4230D0047839
:10645C00012C11D063B21BB1022C21D0112012E0FF
:10646C00C02927D0DB2902D101230370F6E743684A
:10647C00541C84609954F1E7DC2905D0DD290AD03D
:10648C00022303700B2010BD511C43688160C02196
:10649C0099540023E9E7511C81604368DB21F7E73D
:1064AC00C029DBD1002303708360D7E70E20EAE715
:1064BC000420E8E71846E6E71FB503788DF80030AE
:1064CC0043680193037A8DF80830C3680393054A37
:1064DC00054B684653F8213052F82110984705B007
:1064EC005DF804FB6412002068120020F0B506462B
:1064FC00124B16F804CB43F82C20114B17460C46C4
:10650C000A6943F82C200FCC89B06D460FC594E86E
:10651C000F00002F85E80F000A4ACDF810C008BF05
:10652C003A466946304600F03BF94FF0A0430C2246
:10653C00C3F82027C3F81C2709B0F0BD681200204F
:10654C0064120020C5640600024AD2F80034002B05
:10655C00FBD0704700E001400A4908B50223C1F89E
:10656C000435BFF36F8FBFF34F8FC1F80805FFF7EA
:10657C00EBFF0023C1F80435BFF36F8FBFF34F8FD0
:10658C0008BD00BF00E001400E4B10B50124C3F85C
:10659C000445BFF36F8FBFF34F8F01EB8204401A9A
:1065AC00A14208D1074B0022C3F80425BFF36F8F1B
:1065BC00BFF34F8F10BD431851F8042B1A60FFF72F
:1065CC00C3FFEDE700E0014010B5054C22681AB995
:1065DC0004495120FFF7F4F92368BDE8104018472F
:1065EC006C120020A0A3060038B50D4628B90C4942
:1065FC007720FFF7E5F9002038BD0A4B9842FAD115
:10660C000020FFF7A1F9084B1C7914B901221D6079
:10661C001A710020FFF7A8F9002CECD01120EBE741
:10662C00A0A30600002000406C12002018B90649F7
:10663C009B20FFF7C5B9054B984201BF044B0022C4
:10664C001A601A71704700BFA0A30600002000401A
:10665C006C1200200023435082B043580193019BDD
:10666C0002B0704702494FF4E870FFF7A9B900BFB8
:10667C00B6A006001F2810B5044601D9FFF7F2FF9B
:10668C0004F5E0744FF0A043022243F8242010BD1F
:10669C001FB501238DF80030054B8DF808000191D2
:1066AC006846D3E90012904705B05DF804FB00BFC3
:1066BC00741200207FB5384AD2F82461002E49D0DC
:1066CC0010464FF49271FFF7C5FF02238DF800308E
:1066DC00D2F88034C2F880340393D2F83C358DF86C
:1066EC0008302E4BDA6801920022C3E90622684674
:1066FC00D3E900129047284AD2F8443173B14FF4D1
:10670C00A2711046FFF7A6FF244B996931B1002105
:10671C009961D2F83C05D968FFF7BAFF1E4AD2F846
:10672C002031ABB14FF490711046FFF793FF1B4B28
:10673C00596969B1D2F84C158DF808100022996886
:10674C008DF8002001915A616846D3E900129047F8
:10675C0004B070BDD2F81031002BCCD04FF488713E
:10676C001046FFF777FF0D4BD2F83C05996988422C
:10677C00C1D1DC69D96864B1D2F8005225F020058A
:10678C00C2F800521A699C61DA60DE61FFF780FF83
:10679C00B1E79C61FAE700BF0020004074120020B2
:1067AC002DE9F84F054692460C4619B97A49BC209A
:1067BC00FFF706F92E79794F242303FB067393F820
:1067CC002030002B40F0E28075492868FFF70CFF61
:1067DC008046002840F0DD80D4F80090B9F1FF3FEE
:1067EC0018D0B9F11F0F01D9FFF73CFF4FF0A043B0
:1067FC00012202FA09F2C3F80825D4F800B0BBF163
:10680C001F0F994601D9FFF72DFF0BF5E07B0323F2
:10681C0049F82B30D4F80490B9F1FF3F0BD0B9F103
:10682C001F0F01D9FFF71EFF09F5E0794FF0A043C8
:10683C00002243F829202B68A269217DC3F8242566
:10684C00627D0A43C3F86C25D4E900200129C3F802
:10685C000C25C3F8140535D1D4F80890B9F1FF3FD5
:10686C000BD0B9F11F0F01D9FFF7FCFE09F5E07948
:10687C004FF0A043002243F82920D4F80C90B9F132
:10688C00FF3F18D0B9F11F0F01D9FFF7EBFE4FF006
:10689C00A043012202FA09F2C3F80825D4F80CB07F
:1068AC00BBF11F0F994601D9FFF7DCFE0BF5E07B1E
:1068BC00032349F82B30D4E902212B68C3F80815BF
:1068CC00C3F8102524237343FA18C2F804A02269D4
:1068DC00FA50BAF1000F48D04FF488712868247F21
:1068EC00FFF7B8FE4FF490712868FFF7B3FE4FF432
:1068FC0092712868FFF7AEFE4FF4A2712868FFF77B
:10690C00A9FE2B68274AC3F804234FEA1339072C36
:10691C004FFA89FA03D924496B20FFF751F8BAF1E1
:10692C00000FACBF0AF16043204B4FEA4414B8BFD0
:10693C0009F00F09E4B2AABF03F5614303F809405B
:10694C0083F800432B681B0B03F01F0143F3C403B4
:10695C0023F0604323F0030303F1604303F5614329
:10696C0001228A40C3F880211A602B680822C3F8E0
:10697C000025242303FB06760023C6E90633736146
:10698C00012386F820304046BDE8F88F4FF0080808
:10699C00F9E74FF01108F6E7FFA306007412002088
:1069AC00C16606001003020058A4060014ED00E0B6
:1069BC002DE9F84303680479254D0022C3F800251E
:1069CC00242202FB04520646526872B1214AC3F8D3
:1069DC000823190B4AB20120520901F01F0100FAD9
:1069EC0001F120321C4840F82210D3F80C05D3F8E2
:1069FC001495D3F80875D3F810854FF0FF329042F8
:106A0C00C3F80C25C3F81425C3F80825C3F81025C2
:106A1C0001D0FFF72FFEB9F1FF3F02D04846FFF738
:106A2C0029FEB8F1FF3F02D04046FFF723FE7B1C46
:106A3C0002D03846FFF71EFE3068FFF7F7FD24231F
:106A4C0003FB0454002384F820306360BDE8F88312
:106A5C00741200201003020000E100E02DE9F8435D
:106A6C00344D0779242303FB0753064693F8203053
:106A7C00012B8846914604D02F4940F20D10FEF7A9
:106A8C009FFFB8F1000F04D12B494FF48770FEF72C
:106A9C0097FFB9F1000F04D1274940F20F10FEF710
:106AAC008FFF337913B9B9F1FF0F04D922494FF491
:106ABC008870FEF785FF08F06043B3F1005F34D1B6
:106ACC003379242404FB03535A6982BB04FB075417
:106ADC004FF490713068C4F81490C4F80880FFF734
:106AEC00B9FD4FF4AC713068FFF7B4FD33686169E0
:106AFC00A068C3F84405C3F8481501219960616882
:106B0C0061B9D3F82011D3F8582151B9002AF8D023
:106B1C000F22242303FB075500236B611046BDE8AD
:106B2C00F883002A18BF0F22F3E71022F6E7112290
:106B3C00F4E700BF74120020FFA306002DE9F0411A
:106B4C00474E0479242303FB0463054693F8203055
:106B5C00012B8846174604D0424940F25710FEF7E5
:106B6C002FFFB8F1000F04D13E494FF4AC70FEF783
:106B7C0027FF27B93B4940F25910FEF721FF2B792B
:106B8C000BB9FF2F04D937494FF4AD70FEF718FF3E
:106B9C0008F06043B3F1005F5FD1242303FB04636F
:106BAC00596821B12B684FF40472C3F808232423CD
:106BBC0003FB04639A6952B1DA69002A3BD021B114
:106BCC002B684FF40472C3F80423112031E09F6149
:106BDC00C3F80C80DA614FF488712868FFF73AFD2E
:106BEC004FF4A2712868FFF735FD2B68C3F8348584
:106BFC00C3F8387522BB01221A602979242202FBC2
:106C0C00016252681ABBD3F81041D3F84421D3F86F
:106C1C002401144302D10028F5D02246242303FB7F
:106C2C0001660023984218BF03209A42B36118BF33
:106C3C000F20BDE8F081C3F81080DF610122CAE7A4
:106C4C00D3F8002242F02002C3F80022D5E74FF41B
:106C5C000472C3F804230020EBE71020E9E700BF1F
:106C6C0074120020FFA3060008B507281BD8DFE824
:106C7C0000F004121A1A1A041A040120FEF7C8F8BC
:106C8C000020FEF785F80120FEF782F80220BDE80F
:106C9C000840FEF797B80120FEF794F80220BDE8F3
:106CAC000840FEF775B808BD08B5FDF73DFFFDF7C8
:106CBC0051FD0028FBD10D4D642445F001054FF426
:106CCC007A40A847013CFAD1094B1B68DB0700D579
:106CDC0000BEBFF34F8F0749074BCA6802F4E0624E
:106CEC001343CB60BFF34F8F00BFFDE700A5060039
:106CFC00F0ED00E000ED00E00400FA0507B5074BED
:106D0C00074C0092E41AE40824040B460246054999
:106D1C0044F00100FDF7B9FEFFF7C6FFC89D060061
:106D2C00D89D0600ADA4060008B5064A064B0749D7
:106D3C009B1ADB081B04024643F00100FDF792FE90
:106D4C00FFF7B2FFC89D0600D89D0600E4A406001C
:106D5C000022104638B54FF4805100F0C9F90246B4
:106D6C0008B1FFF7E1FF1348C0F5FC2100F0C0F9B2
:106D7C0001460028F5D11048104CFDF78DFCFDF7AD
:106D8C00B3FB0F4B0F49E41AE408240444F003044A
:106D9C002046FDF763FE0C4800F0AAF805460028D3
:106DAC00DFD100F06BF920460849FDF757FE284665
:106DBC0038BD00BF0040060071740600D89D060067
:106DCC00C89D060006A50600756C060012A50600F7
:106DDC00014B01221A707047B816002008B50948FB
:106DEC00094B0A49C01AC008000440F00400FDF722
:106DFC0035FE074B074800221A70BDE8084001F029
:106E0C00B5BE00BFD89D0600C89D06001DA5060096
:106E1C00B81600208D6E0600C31E10B50446042B58
:106E2C0009D8DFE803F00303080F0F0007494FF4FC
:106E3C00701000F0D7FA064B1B6833B12046BDE842
:106E4C0010401847FFF7CAFFF5E710BD616E06004A
:106E5C00BC16002008B50748074B0849C01AC008E3
:106E6C00000440F00300FDF7F9FDBDE80840FFF712
:106E7C00B5BF00BFD89D0600C89D060046A50600FC
:106E8C0008B5FDF751FEFDF765FC0028FBD10B4D55
:106E9C00642445F001054FF47A40A847013CFAD12F
:106EAC00BFF34F8F0649074BCA6802F4E0621343E5
:106EBC00CB60BFF34F8F00BFFDE700BF40A50600BE
:106ECC0000ED00E00400FA0508B50648064B07493A
:106EDC00C01AC008000440F00400FDF7BFFD0020FC
:106EEC0008BD00BFD89D0600C89D0600B2A60600CE
:106EFC0070B5524B524C5349E41AE408240444F044
:106F0C00040506462846FDF7A9FD4F4B00201E60E0
:106F1C0001F062FD48B900F019FC012800F08380F3
:106F2C0041B221B1022800F08680032070BD4FF0E1
:106F3C008042D2F8000410F4803042D04FF48033F9
:106F4C00C2F80034084601F019FF002846D13F4929
:106F5C002846FDF783FD4FF4701400F021FD3C4AE8
:106F6C0020211820FEF71AFC08B1FFF7DDFE4FF0C8
:106F7C008043D3F81C2512F0B10F1EBFD3F81C258B
:106F8C0002F04E02C3F81C25FFF79EFF0028CCD15F
:106F9C002046304900F026FA2F4800F0CBFE00289E
:106FAC00C3D12E492846FDF759FD00F03FFDFEF7F1
:106FBC0079FCFDF7CFFB0028F7D120BF40BF20BFE5
:106FCC00F3E7D2F8203513F0A90F1DBFD2F8203506
:106FDC0003F05603C2F820350120B4E74FF0A0436C
:106FEC00D3F81035DB0301D41D49B1E74FF08043D2
:106FFC00D3F81C3513F0B10F01D01A49A8E701F0F2
:10700C00CBFD002891D1184D2870184801F0AEFD29
:10701C002B7823B916494FF4CB70FEF7D1FC00F056
:10702C002DF8144902E0FFF7D9FE134944F0010092
:10703C00FDF714FD79E74FF4A0248EE7C89D0600F8
:10704C00D89D06005AA50600BC16002071A50600A6
:10705C0098120020616E0600256E060005A606003B
:10706C0094A50600B3A50600B8160020DD6D060039
:10707C0015A6060079A60600D4A5060070B5164B19
:10708C00164C174D1749E41AE408240444F004067E
:10709C004FF480523046FDF7E5FCD5F880201249BC
:1070AC003046FDF7DFFC4FF0FF33C5F88030C5F8F4
:1070BC00803100F063FF20B10C4944F00100FDF772
:1070CC00CDFCFDF747FB0028FBD14FF48050BDE809
:1070DC00704000F039B800BFC89D0600D89D06006E
:1070EC0000E100E0CCA6060002A706002CA70600D3
:1070FC000346C1F30B0070B520BBB3F5FE2F21D8AE
:10710C001B0B013903EB113101264FF080449942DE
:10711C0000D270BD03F01F025D0906FA02F2032DC6
:10712C0005D8DFE805F00206090CC4F80026013387
:10713C00EDE7C4F80426FAE7C4F81026F7E7C4F81C
:10714C001426F4E70720E4E730B505462148002271
:10715C0089B0C0F5FE21FFF7CBFF024648B11E48AF
:10716C001E4B1F491B1ADB081B0443F00100FDF7E3
:10717C0079FCEFF305820023D5E9004183F31488F1
:10718C0083F3108883F3118883F31388C2F3080206
:10719C003AB984F308884FF0FF339E46084709B08C
:1071AC0030BD4FF0FF35203CCDE90033CDE9023343
:1071BC000493CDE905514FF0807320226946204697
:1071CC00079302F049FD84F30888AE466FF006037E
:1071DC001847E4E700400600C89D0600D89D06004D
:1071EC0061A7060073B5274B06462748C01AC0088E
:1071FC0000040C463246254940F00400FDF732FCF1
:10720C00B4F1807F39D322498F20FEF7D9FB6FF080
:10721C007F43204AA34228BF2346D2F80455E41AE0
:10722C001D44631E942B96BF963474607460347B3B
:10723C0025F07F4598BF963D032C03D91449772040
:10724C00FEF7BEFB134E04F5A8734FF4F86046F836
:10725C002350114B43F001039847104BA2001344E9
:10726C0000221A601B680193019B4FF4803303FAD0
:10727C0004F4C6F8044302B070BD952CC7D8044979
:10728C009020C2E7C89D0600D89D0600C6A7060040
:10729C00DCA7060000400240C0A7060040410240A7
:1072AC001948027884B0002A2BD14FF08043A021DA
:1072BC00D3F81834DB035EBF144B01221A60144A56
:1072CC000023136012680392039A124A1360126827
:1072DC000292029A104A136012680192019A0F4AA4
:1072EC0082F824131021C2F8841151600C4A0D4904
:1072FC00C2F8083501230B6002211360C2F8041395
:10730C00037004B0704700BFC41600200800004092
:10731C0000410240404102404441024000E100E093
:10732C000040024008400240244B2DE9F7431A6804
:10733C0042B123490A6801320A6000221A601B68B4
:10734C000093009B1F4D204B204C214EDFF88C806E
:10735C00DFF88C901F4FED1AED082D0445F0040555
:10736C003368CBB100233360336801932246414626
:10737C002846019BFDF776FB227B17494FF480339F
:10738C009340C9F8083322462846FDF76BFB616829
:10739C0051B12046FFF726FF0436BE4204F110041B
:1073AC00DED103B0BDE8F083A16811B12046FFF730
:1073BC0019FF2368002BEFD09847EDE704410240FA
:1073CC00C0160020D89D0600C89D06002400002091
:1073DC004041024048410240AAA7060098A7060077
:1073EC0000400240F8B5114B114E04461148376865
:1073FC00C01AC00800043A460D4640F004000E497D
:10740C00FDF730FB3A7B4FF4803393400B4AC2F8C4
:10741C0008334CB13668FFF743FF356021463046E0
:10742C00BDE8F840FFF7DEBEF8BD00BFC89D060002
:10743C0044000020D89D060098A70600004002409A
:10744C0070B5074B1C6805460E46A060FFF728FF79
:10745C00266029462046BDE87040FFF7C3BE00BF3A
:10746C0048000020034A044B1068D3F8043503EBA2
:10747C0000607047C016002000400240014B012202
:10748C001A707047C5160020224BDA6AAC2A2DE917
:10749C00F3415F6A9D6C1FD15B6B1D44FF1A1E4B41
:1074AC001E4C1F4A1F490097E41AE408240444F0B8
:1074BC0004082B464046FDF7E8FA3A462946184898
:1074CC0002F08FFB064668B917494046FDF7C6FA2D
:1074DC00304602B0BDE8F081002DE0D101F038FC5F
:1074EC000546DCE73B462A4610494046FDF7C3FA01
:1074FC00FDF730F90028FBD100F098FA3946284600
:10750C0000F02AFD06460028E2D0094944F00100AB
:10751C00DCE700BF901B0020C89D0600D89D06002C
:10752C00004006004BA8060080A80600B7A806007D
:10753C00E4A806002DE9F04F3D4B90463D4A9B1ABE
:10754C0087B0DB081B040493814243F00403054617
:10755C000E4603930AD10B460A4603983649FDF7AB
:10756C008AFA0024204607B0BDE8F08F03D23349D5
:10757C004F20FEF725FAC5F30B031BB12F49512001
:10758C00FEF71EFA731BB3F5805F4FEA133B03D271
:10759C002A495420FEF714FA00F002FABBF1080F46
:1075AC0028BF4FF0080B08F6FF794FEA0B334FEA70
:1075BC0019390593B8F1000F01D14446D2E7CB45F8
:1075CC002CBFCA46DA464FF00002514628462CBF63
:1075DC004746059F00F07AFC04460028C2D12B4692
:1075EC003246174903980097FDF74FFAFA1C2346C9
:1075FC0022F003023146284600F02AFC04460028FB
:10760C00B0D1104A136BA8EB07083D443E441F440D
:10761C00176301F0B1FAA9EB0A0904460028C9D096
:10762C00049B094943F00100FDF718FA9AE700BFE3
:10763C00D89D0600C89D0600FEA806002CA90600D1
:10764C009EA90600901B0020BFA906002DE9F0475B
:10765C0001F090FB344C354BDFF8ECA03449DAF8F0
:10766C004880DAF83050DAF83470E41AE40824046C
:10767C0044F0040906464846FDF7F0F942F20403CB
:10768C0058F8032003F1A34303F5471303F2D75330
:10769C009A4208D0274944F00100FDF7DFF9032591
:1076AC002846BDE8F087DAF83030BB42984405D163
:1076BC0021494846FDF7D2F90025F1E7E3B94FF42B
:1076CC00405248461278142A81BF43F214021B49D7
:1076DC001268B2FBF1F208F5005198BF1A4609780E
:1076EC00142981BF42F2140358F80310134BB1FB59
:1076FC00F3F31349FDF7BFF97A1B02F6FF7222F47C
:10770C007F62701922F00F024146FFF713FF054606
:10771C0028B10C4944F00100FDF7A0F9C0E7BDE821
:10772C00F04701F029BA00BFD89D0600C89D06009D
:10773C00C5AB0600EAAB06001EAC060040420F00CB
:10774C0030AC060059AC0600901B00202DE9F04728
:10775C005B4B5C4C5C4F5D49E41AE408240444F038
:10776C0004084046FDF77AF9FB6AA52B7AD009D8B4
:10777C00012B1FD044F003005549FDF76FF9002091
:10778C00BDE8F087AA2B78D0AC2BF3D151494046F9
:10779C00FDF764F950494046FDF760F9FFF756FFD5
:1077AC000546002872D04D4944F00100FDF756F90A
:1077BC00012620E04A494046FDF750F97E6AD7F889
:1077CC00489001F0AFFA3D6B464900EB050A404684
:1077DC00FDF744F9396B49448A4514BF721B0022EA
:1077EC005046FFF7A7FE054668B13F4944F001003B
:1077FC00FDF734F90026FB6A3C492A4644F00100A7
:10780C00FDF739F912E001F08DFA2A463146FEF700
:10781C00BBF8BA6A904281461DD135494046FDF706
:10782C001DF90123C7E90793BE612E463148324D3D
:10783C0001F038FA002331482B7001F09DF92B78B8
:10784C00074623B92E4940F2A310FEF7B9F887BBBF
:10785C0026BB012094E703462A4944F00100FDF7BA
:10786C000AF9E2E728494046FDF7F8F8FFF7EEFE83
:10787C0001260546002DD9D0BDE724494046FDF729
:10788C00EDF8FFF701FE00260546F3E7FFF7FCFDD8
:10789C00054608B11E4987E70126C7E7012001F01C
:1078AC006DFA0028D5D040461A49FDF7D7F80220CA
:1078BC0066E744F001001849FDF7D0F803205FE7B4
:1078CC00C89D0600D89D0600901B0020F8A9060054
:1078DC0004AB0600ADAA0600BBAA0600D8AA060097
:1078EC0019AA060023AA060059AC06001DAB060017
:1078FC003EAA0600B41B0020C516002089740600A1
:10790C002CA9060053AA06009BAA0600A4AA0600EE
:10791C00EEAA06004FAB0600ABAB06000A4AD2F843
:10792C0000347BB109480023D2F80815D940C907A7
:10793C0048BF03F5C07103F1010348BF42F82100B1
:10794C00072BF1D1704700BF000001403546526E45
:10795C0008B50748074B0849C01AC008000440F096
:10796C000300FDF77BF8BDE80840FFF7D7BF00BF69
:10797C00E89D0600C89D0600E3AC060007B5074B62
:10798C0000221A601B680193019BFDF7CDF8FCF7F0
:10799C00E1FE0028FBD103B05DF804FB00010140BF
:1079AC0070B5194E33784BBB184C1949194B641AE6
:1079BC00E408D3F80024240444F00304FAB1D3F807
:1079CC00045515492A462046FDF74CF840F6165347
:1079DC009D42B8BF1D46A5F54865FFF79FFF2A4697
:1079EC000E492046FDF73EF80D492846FFF728FDC5
:1079FC000C4B4FF480321A600123337070BD0A496E
:107A0C002046FDF72BF8F7E7C6160020E89D060088
:107A1C00C89D06000000014072AC06008BAC06004D
:107A2C005D79060000E100E0BDAC0600034BD3F825
:107A3C0000340BB1FFF772BF704700BF000001406C
:107A4C000C4B1B78062B10D10B4B1B681A070CD157
:107A5C000A4B186800F0F003302B08D000F0E0005F
:107A6C00A0F1400358425841704700207047012054
:107A7C00704700BFE00F00F0E40F00F0E80F00F0DB
:107A8C00094B1B78062B0CD1084B1B681A0708D125
:107A9C00074B186800F0F000A0F130035842584131
:107AAC0070470020704700BFE00F00F0E40F00F0BB
:107ABC00E80F00F008B5FFF7C3FF28B17D4B7E4AF5
:107ACC001B68C3F304231360FFF7DAFF10B17B4B81
:107ADC007B4A1A60FFF7B4FF28B17A4B7A4A1B68CD
:107AEC00C3F342331360FFF7CBFF20B1774AD3685F
:107AFC0023F08073D360FFF7A3FF40B14FF08043B6
:107B0C000022C3F80C21C3F81021C3F83825FFF765
:107B1C00B7FF10B16E4B03221A60FFF7B1FF40B1F3
:107B2C006C4B05221A6001229A6700229A603F2250
:107B3C005A60694B1B78062B50D1684B1B68190790
:107B4C004CD1674B1B6803F0F003502B46D14FF020
:107B5C008052644BD2F80414C3F82015D2F80814E0
:107B6C00C3F82415D2F80C14C3F82815D2F8101445
:107B7C00C3F82C15D2F81414C3F83015D2F8181415
:107B8C00C3F83415D2F81C14C3F84015D2F82014DD
:107B9C00C3F84415D2F82414C3F84815D2F82814A5
:107BAC00C3F84C15D2F82C14C3F85015D2F8301475
:107BBC00C3F85415D2F83414C3F86015D2F838143D
:107BCC00C3F86415D2F83C14C3F86815D2F8401405
:107BDC00C3F86C15D2F84424C3F87025FFF730FFB6
:107BEC0028B1414B414A1B6803F04F031360FFF768
:107BFC0027FF48B14FF08043D3F80024D20744BF8D
:107C0C006FF00102C3F80024394B1B68062B08D116
:107C1C00384B1B68062B01BF374A136843F480634B
:107C2C001360364AD2F8883043F47003C2F88830B7
:107C3C00BFF34F8FBFF36F8F4FF01023D3F8002299
:107C4C00002A03DBD3F80432002B2FDA2C4B012251
:107C5C00C3F80425D3F80024002AFBD04FF01022DF
:107C6C001521C2F80012D3F80024002AFBD04FF0E3
:107C7C0010231522C3F80422214B1A46D3F8001402
:107C8C000029FBD00021C3F80415D2F80034002BD6
:107C9C00FBD0BFF34F8F19491A4BCA6802F4E0624C
:107CAC001343CB60BFF34F8F00BFFDE7164B174A52
:107CBC001A6008BD240300104035014074C0074011
:107CCC000DF0ADBA440200103C050040F0ED00E0B0
:107CDC00A005004010560040E00F00F0E40F00F04B
:107CEC00E80F00F000C0004058020010E40E004005
:107CFC0030010010340100103C17004000ED00E092
:107D0C0000E001400400FA054C0000200090D00374
:107D1C00062810B5044602D1002000F089FF044B60
:107D2C001B681BB12046BDE81040184710BD00BFB2
:107D3C00C816002038B5104B104C1860104B114968
:107D4C00E41AE408240444F00300FCF787FE002046
:107D5C00FFF7DEFF0C4800F033FF054620B90A4858
:107D6C00BDE8384000F084BC0246084944F00100EC
:107D7C00FCF778FE284638BDC8160020D89D0600B2
:107D8C00C89D06000CAE06001D7D06001FAE060049
:107D9C0030B51A490B6885B004460BB1013B0B603A
:107DAC001748184A63682578801AC008000440F008
:107DBC0004008BB90B68144A14490093012D08BFB9
:107DCC000A46A3681249FCF760FE63699BB1E06840
:107DDC0005B0BDE8304018470A680292226901924A
:107DEC00A26800920949084A012D08BF0A460949B0
:107DFC00FCF765FEE9E705B030BD00BFCC160020EE
:107E0C00F09D0600C89D06004FAE060049AE060068
:107E1C0055AE06007BAE060008B50848084B09496C
:107E2C00C01AC008000440F00400FCF717FE002242
:107E3C0005490648BDE80840FEF7B0B8F09D0600BD
:107E4C00C89D060021AF060024A3060008000020F0
:107E5C002DE9F7439846174C174BDFF86C90E41A52
:107E6C00E408D9F8003024040546CDE900230E4679
:107E7C000B4617461149024644F00400FCF711FE6C
:107E8C002946CDF800803B4632460D48FEF79EF859
:107E9C00054640B9D9F800300133C9F800302846FE
:107EAC0003B0BDE8F0830246064944F00200FCF73B
:107EBC00D9FDF4E7F09D0600C89D060049AF060009
:107ECC00080000208CAF0600CC1600202DE9F341F1
:107EDC00134B144C144EE41AE40833680093240436
:107EEC0005460B460F4690461049024644F00400E6
:107EFC00FCF7CBFD294643463A460D48FEF7B6F84B
:107F0C00054630B9336801333360284602B0BDE80A
:107F1C00F0810246074944F00200FCF7A3FDF4E7A8
:107F2C00C89D0600F09D0600CC160020B7AE0600DA
:107F3C0008000020F4AE0600014B18700B207047AF
:107F4C00D0160020024B002218781A70704700BF20
:107F5C00D016002018DF704730B585B005461022CA
:107F6C000C466846002101F0A0FEA4086846019565
:107F7C000294FFF7EFFF05B030BD0000F0B5134BD6
:107F8C00134C1449E41AE408240444F0040485B0A6
:107F9C002046FCF763FD002606234FF48057684605
:107FAC00CDE90037CDE90266FFF7D4FF072808BFFB
:107FBC004FF00053054608BF1F602046064908BF16
:107FCC003546FCF74BFD284605B0F0BDC89D0600B4
:107FDC00D89D0600CDAF0600C7AF0600084B094878
:107FEC000949C01A10B5C008000440F00400FCF7A1
:107FFC0035FD064B06201B68BDE81040184700BF36
:10800C00C89D0600F89D0600B5B50600DC160020DC
:10801C000A2803D90B38C0B2FFF78EBF7047000097
:10802C0070B5054686B00020FEF75CF8014690B1AD
:10803C00244A18212846FDF7D5FB024648B12248B0
:10804C00224B23491B1ADB081B0443F00100FCF7ED
:10805C0009FD06B070BD1822684601F026FE042307
:10806C008DF80030194C184B1A4EE41A1A4B1A6D35
:10807C003368E40824049A4244F004041AD11749E2
:10808C002046FCF7EBFC164B3168186801F050F9F0
:10809C008DF80100FFF7BCFFD5E901138DF8010045
:1080AC00684698470F4800F067FD9DF801200E497F
:1080BC002046CCE701238DF801306846D5E9011341
:1080CC009847F2E72D800600C89D0600F89D060033
:1080DC0035B50600D4160020901B00205EB50600B6
:1080EC00D8160020E97F06008DB50600F0B5836830
:1080FC0089B0044623B9A94940F2C120FDF760FCC0
:10810C00162200210DF10A0001F0CFFDA44EA54965
:10811C0022788DF80820761AF608012336048DF89B
:10812C00093046F004051F460C2A00F24B82DFE8AA
:10813C0012F00D00B0009A00B000B0004902B0007F
:10814C009F00B000920026003D00A70096492846EB
:10815C00FCF784FC8DF80C709DF809209349284697
:10816C00FCF780FCD4E9011302A898479DF809306C
:10817C00012B00F012828E4B05201B680CE28D49FE
:10818C002846FCF76BFC4FF08053D3F80021039288
:10819C00D3F804210492D3F80C2192020692D3F85E
:1081AC001021920205921B690793D5E78249834EF1
:1081BC002846FCF753FC227C81492846FCF752FCEC
:1081CC0043F20403326A18687E49884214BF0123C3
:1081DC000223012A4FF001028DF80920227C08BFEE
:1081EC00013352B902238DF80C30F3680493764BAB
:1081FC000593C3F5FC230693AEE7012A14D18842FC
:10820C0012D100234FF440528DF80C301278142AFE
:10821C0084BF43F214031B6804934FF480530593FB
:10822C0043F208031B68E6E79A4209D201238DF852
:10823C000C30B368049300F09BFDB3690590DAE74A
:10824C0062492846FCF70AFCFF238DF80C3000230A
:10825C00CDE90433CFE75E492846FCF7FFFB237CCE
:10826C008DF80C3078E75B492846FCF7F7FB73E791
:10827C0059492846FCF7F2FB238AADF80C306BE722
:10828C0028465649FCF7EAFB494B07201B689847E0
:10829C0062E7062A524F01D0012A01D123693B70B3
:1082AC003B78012B0AD0022B00F0AE804D4946F0F2
:1082BC000100FCF7D3FB00233B7000E1013A072AD5
:1082CC0066D8DFE802F004651444655D651E464916
:1082DC002846FCF7C3FB364B03201B6898476069A4
:1082EC0000F012FFFFF794FE8DF8090034E73F49C8
:1082FC002846FCF7B3FB314BDA6B1B6C03920493EF
:10830C002AE7236923B925494FF48770FDF758FBF9
:10831C00A38A23B9214940F20F10FDF751FB3449D0
:10832C002846FCF79BFBA18A206900F009FFFFF7A8
:10833C006FFE224B8DF80900DA6B1B6C0493E3681B
:10834C000392002B3FF408AF2069984704E72949B2
:10835C002846FCF783FB2849284800F027FFFFF745
:10836C0057FE01288DF809007FF4F6AE002000F0CE
:10837C0003FC08B9224977E70A238DF80930EBE6AC
:10838C0020492846FCF76AFB4FF480730593B2E74B
:10839C00024940F27310FDF713FBDDE6FFAF060058
:1083AC00F89D0600C89D06006CB006008DB5060051
:1083BC00DC1600208FB00600B2B00600901B002027
:1083CC00D5B00600DBE5B15100400600F2B0060066
:1083DC0009B1060020B1060044B106005EB10600EA
:1083EC0050000020F6B4060076B10600A0B10600DD
:1083FC00C4B10600EDB10600D4160020D81600203A
:10840C0018B206003DB20600013A072A00F2D680E7
:10841C00DFE812F00800D4009700A600D400C500D5
:10842C00D40060006B492846FCF718FB00F0B8FE3E
:10843C0030B9694946F00100FCF710FB08239CE7B2
:10844C00626932B9654946F00100FCF707FB03236A
:10845C0093E7C2F30B0343B1614B62495B6D09684F
:10846C0013448B4201D06049EDE7B2F5805F06D929
:10847C005E4946F00100FCF7F1FA04237DE7584F02
:10848C0058497B6D0968D018884206D9009146F08E
:10849C0001005749FCF7F9FAD0E77A64FA6CBA6430
:1084AC00544A3B6510683B63002201211844FFF7D6
:1084BC000DFD30B1504946F00100FCF7CFFA052311
:1084CC005BE7BB6C00933B6D7A6C4C492846FCF720
:1084DC00DCFA41E64A492846FCF7C0FA00F060FE97
:1084EC000028ABD03E4FD7E914329B1AA28A134412
:1084FC007A6C934201D94349A5E73E4B3E6B1B680E
:10850C001E44E36823B940494FF4F370FDF758FA61
:10851C00E368A28A21693046FFF79AFC08B1E36848
:10852C0012E7A18A3B6B394A20690B443B633B6DD4
:10853C000B443B65FDF728FA3B6DB864049003933C
:10854C000AE6274E32492846FCF788FAB36C326D9E
:10855C0030492846FCF78FFAB36C0493336DEEE781
:10856C0028462D49FCF77AFA1D48D0E91473426C61
:10857C00FB1A934205D0294946F00100FCF77BFA1F
:10858C005CE7836CC3640021416447652046FFF7B8
:10859C0047FD234B1B680420984709B0F0BD2149C7
:1085AC002846FCF75BFA0E4B4FF480519A6C1B6D0E
:1085BC0005910091049203931B4987E7124940F2FD
:1085CC008920E8E6194946F00300FCF74BFA022330
:1085DC00D3E600BF67B206008EB20600C3B2060037
:1085EC00901B0020D4160020DCB20600FDB2060061
:1085FC0021B30600D816002092B30600A9B30600DA
:10860C00E4B306000AB40600FFAF0600D81B002036
:10861C0021B4060042B4060058B4060080B406002B
:10862C00DC160020A4B40600CBB4060016B5060078
:10863C00836810B58BB10A4A1821FDF7D3F80446AC
:10864C0048B10848084B0949C01AC008000440F05A
:10865C000200FCF703FA204610BD0724FBE700BF1D
:10866C00F9800600F89D0600C89D0600E3AF0600E1
:10867C0038B50546C0B10020FFF7CEFB044648B91B
:10868C0000F02CFD00F08CFD30B9084B00201D6073
:10869C00FFF752FC204638BD0549064800F086FD20
:1086AC000128F2D00324F5E70724F3E7DC160020B9
:1086BC00D4160020D8160020011F0148FDF74CBA33
:1086CC00449E060013B5074C01AB0A4601462046F2
:1086DC00FDF783FE9DF8042003482146FEF7BEF902
:1086EC0002B010BD7F1800205800002010B5064CB9
:1086FC0023783BB1054B984204D00548FEF758F956
:10870C0000232370002010BDE0160020C09D060041
:10871C00580000202DE9F047334B1A7888B00446F6
:10872C009846002A5ED1314B314E3249324DF61A01
:10873C00F608360446F0040A5046FCF78FF92F4829
:10874C002C60FDF7A3F9A946044670BB2B482C4FAF
:10875C002C4DFDF7D9F92C4B83220330C3E90104CE
:10876C00DA601C70294B7B60294BC7E90232294B1C
:10877C003B610FCD6C460FC495E80F0084E80F00E9
:10878C0006220823CDE9002307210523CDE9021396
:10879C00214A224804976946FDF7A8FE044640B1D9
:1087AC001F4946F00100FCF759F9204608B0BDE816
:1087BC00F08701221B491C48FEF7C0F9044620B182
:1087CC001A4946F00100FCF749F950461849FCF7E4
:1087DC0045F9D9F80030012088F80000002BE4D0CE
:1087EC009847E2E70024E0E7E0160020C89D060069
:1087FC00089E060034B60600E4160020449E0600CF
:10880C00B418002000B60600C8180020D186060057
:10881C00C5860600981800204188060054000020E8
:10882C0050B60600B01800205800002069B60600AB
:10883C0080B60600F8B50578012D0F4602D0022D42
:10884C0032D0F8BD43681B4C19782046FDF7F9FD72
:10885C002A46064618491948FEF770F9002EF0D141
:10886C00174800F0E5F9D4E90112384601F02AF86E
:10887C001448FDF749F9144B144A9B1ADB081B04E6
:10888C00054630B943F001001149BDE8F840FCF74A
:10889C00E5B802460F4943F003000335FCF7E2F854
:1088AC00C4E901562670CCE7C068BDE8F840FEF775
:1088BC003BBA00BFC8180020B01800205800002098
:1088CC00C09D0600449E0600089E0600C89D06003A
:1088DC00A6B60600C0B606002DE9F04716464FF4C2
:1088EC00AE721F46054688461E4C01F07AF91E4BA7
:1088FC00E41AE408240444F0040A814650B91B49E4
:10890C005046FCF7ABF816B90020BDE8F087484696
:10891C00B047F9E716495046FCF7A0F82A46154926
:10892C005046FCF79FF8002201212846FFF7CEFAAB
:10893C0030B1114944F00100FCF790F80320E4E752
:10894C004FF4AE724146384601F086F933464FF487
:10895C00AE7239462846FFF77BFA0028D4D0074977
:10896C00E8E700BF109E0600C89D060066B9060029
:10897C00B0B90600C4B90600E4B9060007BA06008F
:10898C0010B5084C2368013309D000225821201D52
:10899C00FCF7FAFF23681B1A5842584110BD0020FF
:1089AC00FCE700BF00F0070070B5084C054600223C
:1089BC005821201DFCF7E8FF2A4620602146044B75
:1089CC000448BDE87040FFF787BF00BF901B002034
:1089DC00D818002000F007002DE9F8433A4B3B4C27
:1089EC003B49E41AE408240444F0040905464846CB
:1089FC00FCF734F82846FFF70FFA054648B135491D
:108A0C00024644F00100FCF72DF803252846BDE88A
:108A1C00F883314EFFF7B4FFD6F80080D8F8003059
:108A2C000133074642D02A46582108F10400FCF7CE
:108A3C00ABFFD8F80030834238D11FB9274944F036
:108A4C00030013E0306826495422043001F0C9F8C1
:108A5C000746306823494FF480725C3001F0C1F84E
:108A6C0050EA070324D0204944F00200FBF7F6FF3C
:108A7C004FF4AE7231681D4801F0EEF80DE01B4D5D
:108A8C001B4944F00200FBF7E9FF4FF4AE72394684
:108A9C00284601F00AF901236B600020FFF784FFE0
:108AAC0005460028B2D002461249AAE7002FE6D0AC
:108ABC0048461149FBF7D2FF4FF4AE720F490B48F1
:108ACC0001F0CAF8A2E700BFC89D0600109E060080
:108ADC00EEB6060011B706006000002009B80600CB
:108AEC0004F007005CF007003CB70600901B002068
:108AFC00A5B7060062B8060089B8060000F00700AA
:108B0C00F8B5134B134C144DE41AE408240407462F
:108B1C000E462A68114944F00300FBF7A3FFFFF748
:108B2C002FFF20B90E4940F26110FCF749FF3A467D
:108B3C000C4B28683146FFF7CFFE024630B144F0AB
:108B4C0001000949BDE8F840FBF78CBFF8BD00BF38
:108B5C00C89D0600109E06006000002095B8060017
:108B6C00BFB80600341A002029B906000149FFF7E6
:108B7C00C7BF00BF00F0070038B505460020FFF75F
:108B8C0013FF044618B903492846FFF7B9FF2046DE
:108B9C0038BD00BF901B002008B50648064B07499E
:108BAC00C01AC008000440F00200FBF757FF002079
:108BBC0008BD00BF109E0600C89D0600D4B6060076
:108BCC002DE9F843144B154CDFF86090144D154902
:108BDC00E41AE408A5EB09052404ED0844F00404A8
:108BEC0007462A462046FBF73DFF0026AE4202D13F
:108BFC004FF000080BE059F836303846984780465D
:108C0C0040B10346324608492046FBF734FF404644
:108C1C00BDE8F8830136E9E7C89D0600D89D06003B
:108C2C00C89D06008EBA0600B2BA0600C09D0600AA
:108C3C002DE9F843154B164CDFF86490154D164989
:108C4C00E41AE408A5EB09052404ED0844F0040437
:108C5C0007462A462046FBF705FF002609F10409C2
:108C6C00AE4202D14FF000080BE059F836303846CE
:108C7C009847804640B10346324608492046FBF7E8
:108C8C00FAFE4046BDE8F8830136E9E7C89D0600C8
:108C9C00D89D0600C89D06003FBA060064BA0600BF
:108CAC00C09D060008B50C22002100F0FEFF024B0F
:108CBC0000221A6308BD00BF901B002043F2040081
:108CCC0008B50268114B9A421ED1002304221049A8
:108CDC00FFF7BEF858B10F4B0F481049C01AC00827
:108CEC00000440F00100BDE80840FBF7B7BE0C4B98
:108CFC001A6A43F20801012A08BF18629A690968C6
:108D0C000A44A2F580529A6108BD00BFDBE5B1515F
:108D1C00E0BA0600C89D0600D89D06003ABD0600C4
:108D2C00901B002043F204031A68084B9A4201BFBF
:108D3C0043F20803186800F6FF7020F47F600CBF44
:108D4C0020F00F004FF48050704700BFDBE5B151AD
:108D5C0008B5FFF7E7FF054B9B69184400F6FF7059
:108D6C0020F47F6020F00F0008BD00BF901B002096
:108D7C00FFF7D8BF4FF4805070470000F8B5174B81
:108D8C00174C184E1849E41AE408240444F004045F
:108D9C0005462046FBF762FE376A012F06D01349C1
:108DAC002046FBF75BFE00252846F8BD85B1F3692C
:108DBC0073B1FFF7B7FF0022B169FCF7E5FDF3696A
:108DCC00834205D03A460A492046FBF74BFEEBE7B7
:108DDC0008492046FBF742FE0125E5E7C89D060041
:108DEC00D89D0600901B0020E4BA0600FFBA0600CE
:108DFC0015BB060038BB06002DE9F04F89B00746BD
:108E0C0001920593744A754B04919B1ADB081B0461
:108E1C0043F00404724902932046FBF71FFE3A46C6
:108E2C007049714E714DDFF814822046FBF71AFE23
:108E3C00049B6F49002B0CBF32462A462046FBF799
:108E4C0011FE019B6B49002B0CBF32462A46204673
:108E5C00FBF708FE059B6849002B0CBF32462A46DF
:108E6C002046FBF7FFFD43F2040364491A68644B88
:108E7C0020469A4214BF32462A46FBF7F3FD61495D
:108E8C002046FBF7EBFDD8F81830D8F820205E49C7
:108E9C002046FBF7F0FDD8F82430D8F82C205B499D
:108EAC002046FBF7E8FD4FF00009CDF81880B346DB
:108EBC00AA465FFA89F8B8F1010F4ED0B8F1020F4B
:108ECC005AD0FFF745FF019A0346002A43D0069A71
:108EDC00156A6A1E554255414D4E9E4205D24D496A
:108EEC000393CF20FCF76CFD039B0793F61A049BAE
:108EFC004949BE4238BF01234A4620460393FBF73B
:108F0C00B1FD079B45491A462046FBF7ABFDBE4217
:108F1C002CBF5A46524642492046FBF7A3FD002D72
:108F2C000CBF5A4652463F492046FBF79BFD039B1C
:108F3C003D49002B0CBF5A4652462046FBF792FD8A
:108F4C00039BEBB1E5B909F10109B9F1030FB0D1FC
:108F5C00BE4224D216E0019DBEE7FFF7E3FE059A60
:108F6C0003463AB943F204021568254AAD1A18BFF4
:108F7C000125B1E74546AFE701254FF48053ABE738
:108F8C00BE4209D2029B294943F00200FBF766FD61
:108F9C00042009B0BDE8F08FB8F1020F0DD12449BF
:108FAC002046FBF75BFDFFF789FE20462149FBF7C6
:108FBC0055FD2148FFF776FE02E0B8F1000FF4D121
:108FCC001E4D0024012305F12400C5E90443FFF7DD
:108FDC0069FE6F622046DCE7C89D0600D89D06003E
:108FEC0053BB060071BB06008BBB060086BB06009C
:108FFC0091BB0600A2BB0600B0BB0600C5BB0600B9
:10900C00DBE5B151D5BB0600E4BB060004BC060091
:10901C000010060024BC06008BBC060095BC0600A4
:10902C00AABC0600BFBC0600D2BC0600E3BC06000E
:10903C000FBD060028BD0600A81B0020901B0020B9
:10904C0030B51149114C8A6B85B06D465C312846A0
:10905C00FCF776F895E80F0084E80F000C4B0D4AEE
:10906C000D49E3602046FCF708FB044648B90B4861
:10907C000B4B0C49C01AC008000440F00100FBF770
:10908C00EDFC204605B030BD901B0020681E002072
:10909C00B5900600EC1C0020B8AD0600189E06002A
:1090AC00C89D060002C006005B689A68074B9A428E
:1090BC000BD18268064B07480749C01AC008000448
:1090CC00013A40F00400FBF7CDBC70473CAD060004
:1090DC00C89D0600189E0600E5BF060010B5084C9A
:1090EC00A36B1BB90023074A137010BDFFF7A8FF31
:1090FC000028F7D0636A003318BF0123F3E700BFE1
:10910C00901B0020781E002038B5054678B1B0F5CC
:10911C00807F0ED8084C094B0021202204F1380026
:10912C001970216300F0C1FDA563012038BD032037
:10913C00FCE70420FAE700BF901B0020781E0020FB
:10914C0070B5134C0646E06BA36B42189A420D4661
:10915C000BD9104B10481149C01AC008000440F03C
:10916C000100FBF77BFC032070BD5C300A462044F9
:10917C00314600F071FDE36B04F140022B442946AB
:10918C003046E363FCF700FC20640120ECE700BFF1
:10919C00901B0020C89D0600189E06005BBD0600B3
:1091AC00014B1878704700BF781E00202DE9F8435A
:1091BC00524CD4E90E329A42074689460DD0504B98
:1091CC0050485149C01AC008000440F00100FBF798
:1091DC0045FC08263046BDE8F8834C4D2B783BB156
:1091EC00FFF7B6FD3860636AC9F800300126F1E775
:1091FC00FFF726FF002875D0454A92F89C3013B92A
:10920C001278002A6ED0434C00223A60C9F8002034
:10921C0004F19C02002B18BF1446201D00F0A6F987
:10922C0001280646D6D194F859302870DFF8D08042
:10923C00344DDBB994F868206AB3E06E002840D056
:10924C00C9F80000237D002B3DD100221146FFF709
:10925C00D3FDA5EB0805ED082D04002838D02E49C8
:10926C0045F00100FBF7FAFB0426B3E713F001000D
:10927C0003D094F85A0000B1E06D9B07DED594F84A
:10928C006030002BDAD0254B626EC3F5FC239A427A
:10929C0003D81044D2E71846EFE7A5EB0800C00846
:1092AC0000041F4940F00100FBF7E5FB0426A5EB89
:1092BC000805E80800041B4940F00100FBF7CEFB51
:1092CC0088E70F26F3E7A369003318BF0123BCE737
:1092DC00FFF73EFD14493860024645F00400FBF7E9
:1092EC00C1FB77E7064B07481049C01AC0080004B9
:1092FC0040F00100FBF7B2FB05266BE7901B00204A
:10930C00C89D0600189E06007EBD0600781E002033
:10931C00EC1C0020F01C0020E7BD060000400600FD
:10932C0099BD0600B6BD060002BE06001EBE0600B4
:10933C006C4B2DE9F04F93F89C206B4E03F1A40578
:10934C000833002A08BF1D4685B095F85540039197
:10935C008046002C31D10123F3626448644B65498B
:10936C00C01AC008000440F00400FBF777FB2B7C0C
:10937C0034620BB16B690BB9FFF7A0FC95F88F3019
:10938C0013B195F890300BB96B68B360B36CB362E2
:10939C00039B7362012420220021574800F085FCB6
:1093AC00F422FF21554800F080FC00232046336353
:1093BC00C6F8488005B0BDE8F08FE30704F0020B57
:1093CC0040F18D8042F20403484FC158484C03F1E0
:1093DC00A34303F5471303F2D753994212D0381B1A
:1093EC00C0084749000440F00100FBF737FBFFF7CA
:1093FC00C1FC404501D1FFF761FC4248FFF752FC2C
:10940C000524C8E7AB6D03F5FF5203F6FF731F325B
:10941C00C3F30B03D31A42F2080282589A4204D2C5
:10942C00381BC00800043849DDE743F204031B680D
:10943C008B422DD14FF4405334491B78142B89BFE8
:10944C0043F214034FF0000A1A68314B88BFB2FB89
:10945C00F3FA00F500531B78142B89BF42F2140366
:10946C004FF00009C2582A4B88BFB2FBF3F9381BE6
:10947C00C008284ACDF800900004CA4518BF0A4617
:10948C005346254940F00300FBF7FFFACA450FD0BD
:10949C003C1BE4082404214944F00200FBF7DEFAEB
:1094AC0044F001001E49FBF7D9FA1E48FFF7FAFBFE
:1094BC00BBF1000F14BFAC23A523F362AB6D736338
:1094CC00BBF1000F3FF462AF95F88F3023B195F8E4
:1094DC009030002B7FF45AAF6B68F36056E7AA23E9
:1094EC00F362EDE7EC1C0020901B0020189E060098
:1094FC00C89D060047BE0600C81B0020EC1B0020C0
:10950C006FBE0600B41B0020C0BE06003BBE0600AA
:10951C0040420F0041BE060029BF060069BF06008D
:10952C00AABF0600A81B002038B5002343F20C0488
:10953C00DAB28A420BD30A4B0A480B49C01AC0084C
:10954C00000440F00100FBF789FA002007E050F816
:10955C0023502288954203F10103E9D1012038BD43
:10956C00C89D0600209E060089C1060010B5044661
:10957C0018B95749B120FCF723FA94F854309BB131
:10958C0094F85530032B0FD894F86D20032A17D07C
:10959C00504B51485149C01AC008000440F001001A
:1095AC00FBF75CFA142010BD4B484A4B4C49C01ACF
:1095BC00C008000440F00100FBF750FA0F20F2E75E
:1095CC0094F88F2022B194F890200AB10120EAE798
:1095DC00227A32B940483F4B4249C01AC0080004B5
:1095EC00E8E7E268342A0BD03A4B3B483E49C01AB4
:1095FC00C008000440F00200FBF730FA1120D2E75B
:10960C0043F20402217C1068384A90423BD139B1B4
:10961C0062692AB104F11400FFF786FF30B93FE00C
:10962C0003BB012902D96369002BF3D0237894F88A
:10963C005520002B42D0012A2D4A636894BF9268B2
:10964C00D268D31A18BF0123002BBFD1214B22485B
:10965C002849C01AC008000440F00200FBF7FEF9CC
:10966C001020A0E71B4B1C482349C01AC00800045B
:10967C0040F00400FBF7F2F994F8550010F1FF30BC
:10968C0018BF0120CAE7B9B16369ABB11248114BDD
:10969C001A49C01AC008000440F00100FBF7DEF9BB
:1096AC000C4B0D481649C01AC008000440F00200CB
:1096BC00FBF7D4F9122076E72078AFE7012A85D0A2
:1096CC000548044B0F49C01AC008000472E700BFDC
:1096DC0042C00600C89D0600209E06009CC00600E5
:1096EC0085C00600AFC00600BEC00600DBE5B15168
:1096FC00901B00204DC10600D1C0060017C106000A
:10970C003DC1060075C10600030A08704B70030CBE
:10971C00000EC8708B700420704700004278012A3C
:10972C002DE9F04180460F4609D06048604B6149F5
:10973C00C01AC008000440F00200FBF793F998F837
:10974C000030082B0ED17B883A88013B9BB27B8082
:10975C00002A00F0A980002B40F0A68003237A8019
:10976C0088F80030524B514E3D6998F80020524910
:10977C00F61AF608360498F8013046F00400FBF7A8
:10978C007AF960232B7098F800306B7098F80130E0
:10979C00AB70012B7DD198F800300B2B00F282803E
:1097AC00DFE803F072808046808051608072063161
:1097BC00E91CD8F80400FFF7A7FF0330C4B229193D
:1097CC00D8F80800FFF7A0FF0444E4B22919D8F830
:1097DC000C00FFF799FF0444E4B22919D8F81000E3
:1097EC00FFF792FF0444E4B2D8F814002919FFF7EC
:1097FC008BFF0444E4B2182C3AD9304946F00100EE
:10980C00FBF72CF934E098F80430EB70291DD8F8EC
:10981C000800FFF779FF0430C4B22919D8F80C00FE
:10982C00FFF772FF0444E4B22919D8F81000DEE700
:10983C00E91CD8F80400FFF767FF0330C4B22919FC
:10984C00D8F80800D3E7E91CD8F80C00FFF75CFF48
:10985C000330C4B22919D8F80400FFF755FF0444AB
:10986C00E4B2ECE7B8F80430EB701B0A2B7105245A
:10987C007B68214628469847B0B146F00100104954
:10988C00BDE8F041FBF7EAB898F80430EB7004241B
:10989C00EEE70B2B06D1FEF755FBE8700020FEF728
:1098AC004BFBF4E70324E3E7BDE8F081009E0600E0
:1098BC00C89D0600BAC10600E2C1060005C206003A
:1098CC0026C20600F0B50E4687B004460D46174674
:1098DC0000211822684600F0E8F916F8013B8DF8D3
:1098EC0000302E4A0194013B02920A2B18D8DFE873
:1098FC0003F01E061717171B372645175000284B69
:10990C00284822882849C01AC008000440F00400E6
:10991C00FBF7A8F8AA786B7843EA022323806380CC
:10992C00A3683046984710E06B780493F8E72388D7
:10993C0063806B780493D5F802300593F0E7013F10
:10994C00A3680496ADF8147003936846FEF770FE96
:10995C0020B116494FF48470FCF732F807B0F0BD13
:10996C000F4B10481249C01AC008000440F0040004
:10997C00FBF774F8E368ADF81030D1E70948084BF1
:10998C006A780C49C01AC008000440F00400FBF7C8
:10999C0069F86B788DF81030C2E700BF2997060084
:1099AC00C89D0600009E060051C2060093C2060028
:1099BC006EC2060082C206000369C1688B429DBF5D
:1099CC008268D21802F1FF3203F1FF3394BF501AB0
:1099DC00581A70472DE9F041D0E9027405463E1B38
:1099EC004068964220448846144404D900F034F967
:1099FC00EC60BDE8F0813246E41B00F02DF9224604
:109A0C0008EB06016868F1E72DE9F843C5680646DE
:109A1C00894617464FF000083469B3687068A54250
:109A2C0028BFE418013C621B5C1BBC4228BF3C46AF
:109A3C00944228BF144649462844224600F00CF9AB
:109A4C00B3682544AB4208BF00253F1BA044A1448A
:109A5C00F560E1D14046BDE8F883000010B5114C2B
:109A6C00114AA2610223C4E90433104BE361A264DE
:109A7C004FF480530E4A2362E264002310220D49F6
:109A8C00A362E01D6362E362A3656365E36522651F
:109A9C0000F03EF90849204600F03AF92023A37162
:109AAC0010BD00BF7C1E002011C30600041F002047
:109ABC00F41E00201AC306001EC30600F8B5184C8D
:109ACC00182300FB033503FB00402544C46A012C1A
